:100BA30070776420646F6F72206C6F636B00656E87
:100BB3007465722070617373776F726400202020F4
:100BC3002020202020202000707764206973206378
:100BD3006F7272656374006F70656E696E672E2E37
:100BE3002E2E2E006F70656E65642020202020203D
:100BF30020007077642069732077726F6E672020FE
:0B0C03000000000000003132333435E7
:0E0C8C000C160102030405060708092A0023BE
:100C3E00E4FDFCC3ED9FEC9E5015E4FBFA0BBB00EC
:0F0C4E00010AEB647C4A70F50DBD00010C80E4D7
:010C5D002274
:100C7C008F90C2B6D2B57F027E00120C3EC2B52256
:050CA200C2B7020C7C4A
:050CA700D2B7020C7C35
:100C5E007F02120CA27F38120CA27F01120CA27F0F
:0E0C6E000C120CA27F06120CA27F80020CA2B8
:0B0C0E007F80120CA27BFF7A0B79B1F3
:100C19008B138A148915AB13AA14A9151208F66047
:100C2900130515E5157002051414F91208F6FF12DB
:050C39000CA780E2227F
:040B2F008E228F2360
:100B330078247C007D007BFF7A0C79047E007F059E
:100B43001208D0E4F529E523452270057F30020C15
:100B5300A7D3E5239400E5229400402AAE22AF23D5
:100B63007C007D0A12090FED2430FFAE290529749C
:100B7300242EF8A607AE22AF237C007D0A12090FAC
:100B83008E228F2380CB1529C3E52964809480406E
:0F0B93000E74242529F8E6FF120CA7152980E916
:010BA2002230
:070C9B00A2A182A082A222A7
:100AB200D2A2D2A1D2A0C2A7C2A6C2A5C2A4120C1F
:100AC2009B40FBC2A4D2A7D2A6D2A5120C9B400483
:100AD200E4FE8031C2A5D2A7D2A6D2A4120C9B40BA
:100AE200047E018020C2A6D2A7D2A5D2A4120C9B5A
:100AF20040047E02800FC2A7D2A6D2A5D2A4120CB5
:100B02009B40027E0320A004E4FD800C20A1047D12
:100B120001800520A2027D0230A0FD30A1FA30A2A0
:0C0B2200F7EE75F003A424162DF8E6FF92
:010B2E0022A4
:10096400780E7C007D007BFF7A0C79097E007F0580
:100974001208D0C2B0120C5E7BFF7A0B79A3120C62
:10098400197FF47E01120C3E120C0E120C0E7FC065
:10099400120CA27BFF7A0B79C0120C19E4F50D7FBF
:1009A400C0120CA2E4F9120AB2EF2430FF74082931
:1009B400F8A6077F2A120CA709B905EAE4F9740E10
:1009C40029F8E6FF740829F8E6B50702050D09B908
:1009D40005EC7F80120CA2E50D64057BFF70307A74
:1009E4000B79CB120C197FC0120CA27BFF7A0B7906
:1009F400DA120C19D2B07FB87E0B120C3EC2B07F53
:100A0400C0120CA27BFF7A0B79E7120C1980097AC9
:100A14000B79F5120C19C2B07FF47E01120C3E0260
:020A2400098F38
:03000000020A26CB
:0C0A2600787FE4F6D8FD758129020A6D86
:10080000E709F608DFFA8046E709F208DFFA803EDA
:1008100088828C83E709F0A3DFFA8032E309F608C7
:10082000DFFA8078E309F208DFFA807088828C832F
:10083000E309F0A3DFFA806489828A83E0A3F608E3
:10084000DFFA805889828A83E0A3F208DFFA804CBD
:1008500080D280FA80C680D4806980F28033801094
:1008600080A680EA809A80A880DA80E280CA8033FD
:1008700089828A83ECFAE493A3C8C582C8CCC58375
:10088000CCF0A3C8C582C8CCC583CCDFE9DEE78045
:100890000D89828A83E493A3F608DFF9ECFAA9F0C4
:1008A000EDFB2289828A83ECFAE0A3C8C582C8CC1A
:1008B000C583CCF0A3C8C582C8CCC583CCDFEADE33
:1008C000E880DB89828A83E493A3F208DFF980CC95
:1008D00088F0EF60010E4E60C388F0ED2402B4048E
:1008E0000050B9F582EB2402B4040050AF23234535
:0608F00082239008507302
:1008F600BB010689828A83E0225002E722BBFE0200
:09090600E32289828A83E4932232
:10090F00BC000BBE0029EF8DF084FFADF022E4CCCC
:10091F00F875F008EF2FFFEE33FEEC33FCEE9DEC95
:10092F00984005FCEE9DFE0FD5F0E9E4CEFD22EDDB
:10093F00F8F5F0EE8420D21CFEADF075F008EF2F25
:10094F00FFED33FD4007985006D5F0F222C398FD16
:05095F000FD5F0EA22B3
:100A3200020964E493A3F8E493A34003F68001F26D
:100A420008DFF48029E493A3F85407240CC8C333C5
:100A5200C4540F4420C8834004F456800146F6DF94
:100A6200E4800B0102040810204080900C8CE47E8C
:100A7200019360BCA3FF543F30E509541FFEE49389
:100A8200A360010ECF54C025E060A840B8E493A350
:100A9200FAE493A3F8E493A3C8C582C8CAC583CA7B
:100AA200F0A3C8C582C8CAC583CADFE9DEE780BE33
:010C9A000059
:00000001FF
