:10089600454D505459202020005155415445522071
:1008A60020200048414C462020202000332F3420B1
:1008B60046554C4C2020200046554C4C20202020EC
:0108C6000031
:0708F60012096A7F017E0078
:1008FD00E4FDFCC3ED9FEE6480F8EC648098501528
:10090D00E4FBFA0BBB00010ABA04F8BBFBF50DBD05
:05091D0000010C80DE6A
:0109220022B2
:0E097800D290C2918FA0D2921208F9C29222A0
:040966007F807E0010
:0E096A008FA0C290C291D2921208F9C29222BE
:0608C7008B088A09890A72
:1008CD00E4F50BF50CAB08AA09A90A850C82850B7A
:1008DD0083120923FF60113395E0FE120978050C90
:0808ED00E50C70E1050B80DD54
:0108F50022E0
:100950007F387E001208F67F0C1208F612096A7FB3
:06096000807E0002096A1E
:10080000120950D2B3D2B2D2B1D2B0C2B3C2B2C2C4
:10081000B1C2B0C2B420B01920B11620B21320B3B7
:10082000101209667BFF7A0879961208C7D2B48045
:10083000E430B01420B11120B20E20B30B120966BF
:100840007BFF7A08799F802C30B01430B11120B230
:100850000E20B30B1209667BFF7A0879A980153048
:10086000B01730B11430B21120B30E1209667BFFFD
:100870007A0879B21208C7809C30B09930B19630AE
:10088000B29330B3901209667BFF7A0879BE1208E2
:06089000C7C2B402081506
:030000000209866C
:0C098600787FE4F6D8FD75810C020800B3
:10092300BB010CE58229F582E5833AF583E0225089
:1009330006E92582F8E622BBFE06E92582F8E222D3
:0D094300E58229F582E5833AF583E49322ED
:00000001FF
